{"abi":[{"type":"constructor","inputs":[{"name":"name","type":"string","internalType":"string"}],"stateMutability":"nonpayable"},{"type":"function","name":"eip712Domain","inputs":[],"outputs":[{"name":"fields","type":"bytes1","internalType":"bytes1"},{"name":"name","type":"string","internalType":"string"},{"name":"version","type":"string","internalType":"string"},{"name":"chainId","type":"uint256","internalType":"uint256"},{"name":"verifyingContract","type":"address","internalType":"address"},{"name":"salt","type":"bytes32","internalType":"bytes32"},{"name":"extensions","type":"uint256[]","internalType":"uint256[]"}],"stateMutability":"view"},{"type":"function","name":"execute","inputs":[{"name":"request","type":"tuple","internalType":"struct ERC2771Forwarder.ForwardRequestData","components":[{"name":"from","type":"address","internalType":"address"},{"name":"to","type":"address","internalType":"address"},{"name":"value","type":"uint256","internalType":"uint256"},{"name":"gas","type":"uint256","internalType":"uint256"},{"name":"deadline","type":"uint48","internalType":"uint48"},{"name":"data","type":"bytes","internalType":"bytes"},{"name":"signature","type":"bytes","internalType":"bytes"}]}],"outputs":[],"stateMutability":"payable"},{"type":"function","name":"executeBatch","inputs":[{"name":"requests","type":"tuple[]","internalType":"struct ERC2771Forwarder.ForwardRequestData[]","components":[{"name":"from","type":"address","internalType":"address"},{"name":"to","type":"address","internalType":"address"},{"name":"value","type":"uint256","internalType":"uint256"},{"name":"gas","type":"uint256","internalType":"uint256"},{"name":"deadline","type":"uint48","internalType":"uint48"},{"name":"data","type":"bytes","internalType":"bytes"},{"name":"signature","type":"bytes","internalType":"bytes"}]},{"name":"refundReceiver","type":"address","internalType":"address payable"}],"outputs":[],"stateMutability":"payable"},{"type":"function","name":"nonces","inputs":[{"name":"owner","type":"address","internalType":"address"}],"outputs":[{"name":"","type":"uint256","internalType":"uint256"}],"stateMutability":"view"},{"type":"function","name":"verify","inputs":[{"name":"request","type":"tuple","internalType":"struct ERC2771Forwarder.ForwardRequestData","components":[{"name":"from","type":"address","internalType":"address"},{"name":"to","type":"address","internalType":"address"},{"name":"value","type":"uint256","internalType":"uint256"},{"name":"gas","type":"uint256","internalType":"uint256"},{"name":"deadline","type":"uint48","internalType":"uint48"},{"name":"data","type":"bytes","internalType":"bytes"},{"name":"signature","type":"bytes","internalType":"bytes"}]}],"outputs":[{"name":"","type":"bool","internalType":"bool"}],"stateMutability":"view"},{"type":"event","name":"EIP712DomainChanged","inputs":[],"anonymous":false},{"type":"event","name":"ExecutedForwardRequest","inputs":[{"name":"signer","type":"address","indexed":true,"internalType":"address"},{"name":"nonce","type":"uint256","indexed":false,"internalType":"uint256"},{"name":"success","type":"bool","indexed":false,"internalType":"bool"}],"anonymous":false},{"type":"error","name":"ERC2771ForwarderExpiredRequest","inputs":[{"name":"deadline","type":"uint48","internalType":"uint48"}]},{"type":"error","name":"ERC2771ForwarderInvalidSigner","inputs":[{"name":"signer","type":"address","internalType":"address"},{"name":"from","type":"address","internalType":"address"}]},{"type":"error","name":"ERC2771ForwarderMismatchedValue","inputs":[{"name":"requestedValue","type":"uint256","internalType":"uint256"},{"name":"msgValue","type":"uint256","internalType":"uint256"}]},{"type":"error","name":"ERC2771UntrustfulTarget","inputs":[{"name":"target","type":"address","internalType":"address"},{"name":"forwarder","type":"address","internalType":"address"}]},{"type":"error","name":"FailedCall","inputs":[]},{"type":"error","name":"InsufficientBalance","inputs":[{"name":"balance","type":"uint256","internalType":"uint256"},{"name":"needed","type":"uint256","internalType":"uint256"}]},{"type":"error","name":"InvalidAccountNonce","inputs":[{"name":"account","type":"address","internalType":"address"},{"name":"currentNonce","type":"uint256","internalType":"uint256"}]},{"type":"error","name":"InvalidShortString","inputs":[]},{"type":"error","name":"StringTooLong","inputs":[{"name":"str","type":"string","internalType":"string"}]}],"bytecode":{"object":"0x61016060405234801561001157600080fd5b506040516113f13803806113f1833981016040819052610030916101b4565b6040805180820190915260018152603160f81b60208201528190610055826000610100565b61012052610064816001610100565b61014052815160208084019190912060e052815190820120610100524660a0526100f160e05161010051604080517f8b73c3c69bb8fe3d512ecc4cf759cc79239f7b179b0ffacaa9a75d522b39400f60208201529081019290925260608201524660808201523060a082015260009060c00160405160208183030381529060405280519060200120905090565b60805250503060c05250610404565b600060208351101561011c5761011583610133565b905061012d565b8161012784826102ef565b5060ff90505b92915050565b600080829050601f81511115610167578260405163305a27a960e01b815260040161015e91906103ad565b60405180910390fd5b8051610172826103e0565b179392505050565b634e487b7160e01b600052604160045260246000fd5b60005b838110156101ab578181015183820152602001610193565b50506000910152565b6000602082840312156101c657600080fd5b81516001600160401b038111156101dc57600080fd5b8201601f810184136101ed57600080fd5b80516001600160401b038111156102065761020661017a565b604051601f8201601f19908116603f011681016001600160401b03811182821017156102345761023461017a565b60405281815282820160200186101561024c57600080fd5b61025d826020830160208601610190565b95945050505050565b600181811c9082168061027a57607f821691505b60208210810361029a57634e487b7160e01b600052602260045260246000fd5b50919050565b601f8211156102ea57806000526020600020601f840160051c810160208510156102c75750805b601f840160051c820191505b818110156102e757600081556001016102d3565b50505b505050565b81516001600160401b038111156103085761030861017a565b61031c816103168454610266565b846102a0565b6020601f82116001811461035057600083156103385750848201515b600019600385901b1c1916600184901b1784556102e7565b600084815260208120601f198516915b828110156103805787850151825560209485019460019092019101610360565b508482101561039e5786840151600019600387901b60f8161c191681555b50505050600190811b01905550565b60208152600082518060208401526103cc816040850160208701610190565b601f01601f19169190910160400192915050565b8051602080830151919081101561029a5760001960209190910360031b1b16919050565b60805160a05160c05160e051610100516101205161014051610f9361045e60003960006103b00152600061037e01526000610ac501526000610a9d015260006109f801526000610a2201526000610a4c0152610f936000f3fe60806040526004361061004a5760003560e01c806319d8d38c1461004f5780637ecebe001461008457806384b0196e146100c8578063ccf96b4a146100f0578063df905caf14610105575b600080fd5b34801561005b57600080fd5b5061006f61006a366004610c0d565b610118565b60405190151581526020015b60405180910390f35b34801561009057600080fd5b506100ba61009f366004610c64565b6001600160a01b031660009081526002602052604090205490565b60405190815260200161007b565b3480156100d457600080fd5b506100dd61014a565b60405161007b9796959493929190610cc7565b6101036100fe366004610d5f565b610190565b005b610103610113366004610c0d565b610297565b600080600080610127856102f2565b509250925092508280156101385750815b80156101415750805b95945050505050565b60006060806000806000606061015e610377565b6101666103a9565b60408051600080825260208201909252600f60f81b9b939a50919850469750309650945092509050565b6001600160a01b03811615600080805b85811015610250578686828181106101ba576101ba610de8565b90506020028101906101cc9190610dfe565b6101da906040013584610e1e565b9250600061020b8888848181106101f3576101f3610de8565b90506020028101906102059190610dfe565b866103d6565b9050806102475787878381811061022457610224610de8565b90506020028101906102369190610dfe565b610244906040013584610e1e565b92505b506001016101a0565b5034821461027f576040516370647f7960e01b8152600481018390523460248201526044015b60405180910390fd5b801561028f5761028f84826105b9565b505050505050565b806040013534146102c757604080516370647f7960e01b8152908201356004820152346024820152604401610276565b6102d28160016103d6565b6102ef5760405163d6bda27560e01b815260040160405180910390fd5b50565b6000806000806000806103048761064f565b909250905061032161031c6040890160208a01610c64565b6107c4565b4261033260a08a0160808b01610e3f565b65ffffffffffff161015838015610366575061035160208a018a610c64565b6001600160a01b0316836001600160a01b0316145b919750955093509150509193509193565b60606103a47f00000000000000000000000000000000000000000000000000000000000000006000610841565b905090565b60606103a47f00000000000000000000000000000000000000000000000000000000000000006001610841565b60008060008060006103e7876102f2565b935093509350935085156104ad57836104355761040a6040880160208901610c64565b60405163d2650cd160e01b81526001600160a01b039091166004820152306024820152604401610276565b8261046e5761044a60a0880160808901610e3f565b604051634a777ac560e11b815265ffffffffffff9091166004820152602401610276565b816104ad57806104816020890189610c64565b604051636422d02b60e11b81526001600160a01b03928316600482015291166024820152604401610276565b8380156104b75750815b80156104c05750825b156105af576001600160a01b03811660009081526002602052604081208054600181019091559050606088013560006104ff60408b0160208c01610c64565b905060408a0135600061051560a08d018d610e67565b61052260208f018f610c64565b60405160200161053493929190610eb5565b6040516020818303038152906040529050600080600083516020850186888af19a505a9050610563818e6108ee565b604080518781528c151560208201526001600160a01b038916917f842fb24a83793558587a3dab2be7674da4a51d09c5542d6dd354e5d0ea70813c910160405180910390a25050505050505b5050505092915050565b804710156105e35760405163cf47918160e01b815247600482015260248101829052604401610276565b600080836001600160a01b03168360405160006040518083038185875af1925050503d8060008114610631576040519150601f19603f3d011682016040523d82523d6000602084013e610636565b606091505b509150915081610649576106498161090a565b50505050565b600080808061079e61066460c0870187610e67565b8080601f01602080910402602001604051908101604052809392919081815260200183838082843760009201919091525061079892507f7f96328b83274ebc7c1cf4f7a3abda602b51a78b7fa1d86a2ce353d75e587cac91506106cc905060208a018a610c64565b6106dc60408b0160208c01610c64565b60408b013560608c01356106f661009f60208f018f610c64565b8d60800160208101906107099190610e3f565b8e8060a001906107199190610e67565b604051610727929190610edb565b6040805191829003822060208301999099526001600160a01b0397881690820152959094166060860152608085019290925260a084015260c083015265ffffffffffff1660e08201526101008101919091526101200160405160208183030381529060405280519060200120610932565b9061095f565b50909250905060008160038111156107b8576107b8610eeb565b14959194509092505050565b604051306024820152600090819060440160408051601f19818403018152919052602080820180516001600160e01b031663572b6c0560e01b17815282519293506000928392839290918391895afa92503d9150600051905082801561082b575060208210155b80156108375750600081115b9695505050505050565b606060ff831461085b57610854836109ac565b90506108e8565b81805461086790610f01565b80601f016020809104026020016040519081016040528092919081815260200182805461089390610f01565b80156108e05780601f106108b5576101008083540402835291602001916108e0565b820191906000526020600020905b8154815290600101906020018083116108c357829003601f168201915b505050505090505b92915050565b6108fd603f6060830135610f3b565b82101561090657fe5b5050565b80511561091957805160208201fd5b60405163d6bda27560e01b815260040160405180910390fd5b60006108e861093f6109eb565b8360405161190160f01b8152600281019290925260228201526042902090565b600080600083516041036109995760208401516040850151606086015160001a61098b88828585610b16565b9550955095505050506109a5565b50508151600091506002905b9250925092565b606060006109b983610be5565b604080516020808252818301909252919250600091906020820181803683375050509182525060208101929092525090565b6000306001600160a01b037f000000000000000000000000000000000000000000000000000000000000000016148015610a4457507f000000000000000000000000000000000000000000000000000000000000000046145b15610a6e57507f000000000000000000000000000000000000000000000000000000000000000090565b6103a4604080517f8b73c3c69bb8fe3d512ecc4cf759cc79239f7b179b0ffacaa9a75d522b39400f60208201527f0000000000000000000000000000000000000000000000000000000000000000918101919091527f000000000000000000000000000000000000000000000000000000000000000060608201524660808201523060a082015260009060c00160405160208183030381529060405280519060200120905090565b600080807f7fffffffffffffffffffffffffffffff5d576e7357a4501ddfe92f46681b20a0841115610b515750600091506003905082610bdb565b604080516000808252602082018084528a905260ff891692820192909252606081018790526080810186905260019060a0016020604051602081039080840390855afa158015610ba5573d6000803e3d6000fd5b5050604051601f1901519150506001600160a01b038116610bd157506000925060019150829050610bdb565b9250600091508190505b9450945094915050565b600060ff8216601f8111156108e857604051632cd44ac360e21b815260040160405180910390fd5b600060208284031215610c1f57600080fd5b813567ffffffffffffffff811115610c3657600080fd5b820160e08185031215610c4857600080fd5b9392505050565b6001600160a01b03811681146102ef57600080fd5b600060208284031215610c7657600080fd5b8135610c4881610c4f565b6000815180845260005b81811015610ca757602081850181015186830182015201610c8b565b506000602082860101526020601f19601f83011685010191505092915050565b60ff60f81b8816815260e060208201526000610ce660e0830189610c81565b8281036040840152610cf88189610c81565b606084018890526001600160a01b038716608085015260a0840186905283810360c08501528451808252602080870193509091019060005b81811015610d4e578351835260209384019390920191600101610d30565b50909b9a5050505050505050505050565b600080600060408486031215610d7457600080fd5b833567ffffffffffffffff811115610d8b57600080fd5b8401601f81018613610d9c57600080fd5b803567ffffffffffffffff811115610db357600080fd5b8660208260051b8401011115610dc857600080fd5b602091820194509250840135610ddd81610c4f565b809150509250925092565b634e487b7160e01b600052603260045260246000fd5b6000823560de19833603018112610e1457600080fd5b9190910192915050565b808201808211156108e857634e487b7160e01b600052601160045260246000fd5b600060208284031215610e5157600080fd5b813565ffffffffffff81168114610c4857600080fd5b6000808335601e19843603018112610e7e57600080fd5b83018035915067ffffffffffffffff821115610e9957600080fd5b602001915036819003821315610eae57600080fd5b9250929050565b8284823760609190911b6bffffffffffffffffffffffff19169101908152601401919050565b8183823760009101908152919050565b634e487b7160e01b600052602160045260246000fd5b600181811c90821680610f1557607f821691505b602082108103610f3557634e487b7160e01b600052602260045260246000fd5b50919050565b600082610f5857634e487b7160e01b600052601260045260246000fd5b50049056fea264697066735822122092d2071d59ec90db237b7fb90da8630613bce92985f638579a76592b9c2ecfeb64736f6c634300081c0033","linkReferences":{}},"methodIdentifiers":{"eip712Domain()":"84b0196e","execute((address,address,uint256,uint256,uint48,bytes,bytes))":"df905caf","executeBatch((address,address,uint256,uint256,uint48,bytes,bytes)[],address)":"ccf96b4a","nonces(address)":"7ecebe00","verify((address,address,uint256,uint256,uint48,bytes,bytes))":"19d8d38c"},"id":2}