{"abi":[{"type":"constructor","inputs":[{"name":"_forwarder","type":"address","internalType":"address"}],"stateMutability":"nonpayable"},{"type":"function","name":"allVaults","inputs":[{"name":"i","type":"uint256","internalType":"uint256"}],"outputs":[{"name":"","type":"address","internalType":"address"}],"stateMutability":"view"},{"type":"function","name":"allVaultsLength","inputs":[],"outputs":[{"name":"","type":"uint256","internalType":"uint256"}],"stateMutability":"view"},{"type":"function","name":"createVaultERC20","inputs":[{"name":"asset","type":"address","internalType":"contract IERC20"},{"name":"goal","type":"uint256","internalType":"uint256"},{"name":"name","type":"string","internalType":"string"}],"outputs":[{"name":"vault","type":"address","internalType":"address"}],"stateMutability":"nonpayable"},{"type":"function","name":"createVaultNative","inputs":[{"name":"goal","type":"uint256","internalType":"uint256"},{"name":"name","type":"string","internalType":"string"}],"outputs":[{"name":"vault","type":"address","internalType":"address"}],"stateMutability":"nonpayable"},{"type":"function","name":"forwarder","inputs":[],"outputs":[{"name":"","type":"address","internalType":"address"}],"stateMutability":"view"},{"type":"function","name":"getCreatorVaults","inputs":[{"name":"creator","type":"address","internalType":"address"}],"outputs":[{"name":"","type":"address[]","internalType":"address[]"}],"stateMutability":"view"},{"type":"function","name":"isTrustedForwarder","inputs":[{"name":"forwarder","type":"address","internalType":"address"}],"outputs":[{"name":"","type":"bool","internalType":"bool"}],"stateMutability":"view"},{"type":"function","name":"trustedForwarder","inputs":[],"outputs":[{"name":"","type":"address","internalType":"address"}],"stateMutability":"view"},{"type":"event","name":"VaultCreated","inputs":[{"name":"creator","type":"address","indexed":true,"internalType":"address"},{"name":"vault","type":"address","indexed":false,"internalType":"address"},{"name":"asset","type":"address","indexed":true,"internalType":"address"},{"name":"isNative","type":"bool","indexed":false,"internalType":"bool"},{"name":"goal","type":"uint256","indexed":false,"internalType":"uint256"},{"name":"name","type":"string","indexed":false,"internalType":"string"}],"anonymous":false}],"bytecode":{"object":"0x60c060405234801561001057600080fd5b5060405161200638038061200683398101604081905261002f9161008d565b6001600160a01b038116608081905261007c5760405162461bcd60e51b815260206004820152600b60248201526a0666f727761726465723d360ac1b604482015260640160405180910390fd5b6001600160a01b031660a0526100bd565b60006020828403121561009f57600080fd5b81516001600160a01b03811681146100b657600080fd5b9392505050565b60805160a051611f096100fd6000396000818161018b01528181610267015261039d01526000818160b30152818161011501526104d80152611f096000f3fe608060405234801561001057600080fd5b50600436106100885760003560e01c80639094a91e1161005b5780639094a91e1461014d5780639a543d8214610160578063c0ffcf8d14610173578063f645d4f91461018657600080fd5b80634cd185771461008d578063572b6c05146100a3578063674e9ca2146100f35780637da0a87714610113575b600080fd5b6001546040519081526020015b60405180910390f35b6100e36100b1366004610557565b7f00000000000000000000000000000000000000000000000000000000000000006001600160a01b0390811691161490565b604051901515815260200161009a565b610106610101366004610557565b6101ad565b60405161009a919061057b565b7f00000000000000000000000000000000000000000000000000000000000000005b6040516001600160a01b03909116815260200161009a565b61013561015b3660046105c7565b610221565b61013561016e366004610629565b610251565b610135610181366004610685565b610386565b6101357f000000000000000000000000000000000000000000000000000000000000000081565b6001600160a01b0381166000908152602081815260409182902080548351818402810184019094528084526060939283018282801561021557602002820191906000526020600020905b81546001600160a01b031681526001909101906020018083116101f7575b50505050509050919050565b600060018281548110610236576102366106d1565b6000918252602090912001546001600160a01b031692915050565b60008061025c6104b7565b9050808660008787877f000000000000000000000000000000000000000000000000000000000000000060405161029290610532565b6102a29796959493929190610710565b604051809103906000f0801580156102be573d6000803e3d6000fd5b506001600160a01b0380831660008181526020818152604080832080546001818101835591855292842090920180548688166001600160a01b03199182168117909255835480850185559385527fb10e2d527612073b26eecdfd717e6a320cf44b4afac2b0732d9fcbe2b7fa0cf6909301805490931617909155519395509189169290917fdc341d3bc7b547adc28dc5fd69fd2ac058a6a5938cf499dcd2c7db3f80f374c5916103759187918b908b908b90610768565b60405180910390a350949350505050565b6000806103916104b7565b905080600060018787877f00000000000000000000000000000000000000000000000000000000000000006040516103c890610532565b6103d89796959493929190610710565b604051809103906000f0801580156103f4573d6000803e3d6000fd5b506001600160a01b0380831660008181526020818152604080832080546001818101835591855292842090920180549587166001600160a01b03199687168117909155825480840184558385527fb10e2d527612073b26eecdfd717e6a320cf44b4afac2b0732d9fcbe2b7fa0cf60180549096161790945592519395509290917fdc341d3bc7b547adc28dc5fd69fd2ac058a6a5938cf499dcd2c7db3f80f374c5916104a79187918b908b908b90610768565b60405180910390a3509392505050565b60006104c16104c6565b905090565b600036601480821080159061050357507f00000000000000000000000000000000000000000000000000000000000000006001600160a01b031633145b1561052a57610517368284038160006107a3565b610520916107cd565b60601c9250505090565b339250505090565b6116b98061081b83390190565b6001600160a01b038116811461055457600080fd5b50565b60006020828403121561056957600080fd5b81356105748161053f565b9392505050565b602080825282518282018190526000918401906040840190835b818110156105bc5783516001600160a01b0316835260209384019390920191600101610595565b509095945050505050565b6000602082840312156105d957600080fd5b5035919050565b60008083601f8401126105f257600080fd5b50813567ffffffffffffffff81111561060a57600080fd5b60208301915083602082850101111561062257600080fd5b9250929050565b6000806000806060858703121561063f57600080fd5b843561064a8161053f565b935060208501359250604085013567ffffffffffffffff81111561066d57600080fd5b610679878288016105e0565b95989497509550505050565b60008060006040848603121561069a57600080fd5b83359250602084013567ffffffffffffffff8111156106b857600080fd5b6106c4868287016105e0565b9497909650939450505050565b634e487b7160e01b600052603260045260246000fd5b81835281816020850137506000828201602090810191909152601f909101601f19169091010190565b6001600160a01b0388811682528716602082015285151560408201526060810185905260c06080820181905260009061074c90830185876106e7565b905060018060a01b03831660a083015298975050505050505050565b60018060a01b038616815284151560208201528360408201526080606082015260006107986080830184866106e7565b979650505050505050565b600080858511156107b357600080fd5b838611156107c057600080fd5b5050820193919092039150565b80356bffffffffffffffffffffffff198116906014841015610813576bffffffffffffffffffffffff196bffffffffffffffffffffffff198560140360031b1b82161691505b509291505056fe61012060405234801561001157600080fd5b506040516116b93803806116b98339810160408190526100309161013c565b60016000556001600160a01b038082166080528616158061004f575082155b1561006d57604051633494a40d60e21b815260040160405180910390fd5b83156100a0576001600160a01b0385161561009b57604051633494a40d60e21b815260040160405180910390fd5b6100c7565b6001600160a01b0385166100c757604051633494a40d60e21b815260040160405180910390fd5b6001600160a01b0380871660a052851660c05283151560e05261010083905260016100f283826102e8565b505050505050506103a6565b6001600160a01b038116811461011357600080fd5b50565b8051610121816100fe565b919050565b634e487b7160e01b600052604160045260246000fd5b60008060008060008060c0878903121561015557600080fd5b8651610160816100fe565b6020880151909650610171816100fe565b6040880151909550801515811461018757600080fd5b6060880151608089015191955093506001600160401b038111156101aa57600080fd5b87016000601f82018a136101bc578081fd5b81516001600160401b038111156101d5576101d5610126565b604051601f8201601f19908116603f011681016001600160401b038111828210171561020357610203610126565b6040528181528382016020018c101561021a578283fd5b825b828110156102385760208186018101518383018201520161021c565b50908101602001919091529250610253905060a08801610116565b90509295509295509295565b600181811c9082168061027357607f821691505b60208210810361029357634e487b7160e01b600052602260045260246000fd5b50919050565b601f8211156102e357806000526020600020601f840160051c810160208510156102c05750805b601f840160051c820191505b818110156102e057600081556001016102cc565b50505b505050565b81516001600160401b0381111561030157610301610126565b6103158161030f845461025f565b84610299565b6020601f82116001811461034957600083156103315750848201515b600019600385901b1c1916600184901b1784556102e0565b600084815260208120601f198516915b828110156103795787850151825560209485019460019092019101610359565b50848210156103975786840151600019600387901b60f8161c191681555b50505050600190811b01905550565b60805160a05160c05160e0516101005161121a61049f60003960008181610187015281816102b40152818161057501528181610665015281816108d801528181610a8c0152610dde01526000818160e80152818161036d015281816104c4015281816106b30152818161091101528181610aee0152610ba801526000818161026b0152818161080f01528181610984015281816109c401528181610b2601528181610c0801528181610cd60152610d160152600081816101f0015281816105dc015281816106db015281816107b001528181610831015261086e01526000818161032b0152818161039e0152610f29015261121a6000f3fe6080604052600436106100e15760003560e01c8063572b6c051161007f578063b51459fe11610059578063b51459fe146103c2578063c1cbbca7146103d7578063c66f2455146103f7578063ce40a3081461040c57600080fd5b8063572b6c051461030e57806373cfc6b21461035b5780637da0a8771461038f57600080fd5b806338d52e0f116100bb57806338d52e0f146102595780633ccfd60b1461028d57806340193883146102a257806344aa5700146102e457600080fd5b806302d05d3f146101de57806306fdde031461022f5780631f6899351461025157600080fd5b366101d9577f00000000000000000000000000000000000000000000000000000000000000006101245760405163f170c67f60e01b815260040160405180910390fd5b3460000361014557604051631f2a200560e01b815260040160405180910390fd5b604080513481524760208201819052600182840152915133916000805160206111c5833981519152919081900360600190a260025460ff161580156101aa57507f00000000000000000000000000000000000000000000000000000000000000008110155b156101d75760408051428152602081018390526000805160206111a5833981519152910160405180910390a15b005b600080fd5b3480156101ea57600080fd5b506102127f000000000000000000000000000000000000000000000000000000000000000081565b6040516001600160a01b0390911681526020015b60405180910390f35b34801561023b57600080fd5b5061024461042c565b6040516102269190610ff4565b6101d76104ba565b34801561026557600080fd5b506102127f000000000000000000000000000000000000000000000000000000000000000081565b34801561029957600080fd5b506101d76105d2565b3480156102ae57600080fd5b506102d67f000000000000000000000000000000000000000000000000000000000000000081565b604051908152602001610226565b3480156102f057600080fd5b506002546102fe9060ff1681565b6040519015158152602001610226565b34801561031a57600080fd5b506102fe610329366004611042565b7f00000000000000000000000000000000000000000000000000000000000000006001600160a01b0390811691161490565b34801561036757600080fd5b506102fe7f000000000000000000000000000000000000000000000000000000000000000081565b34801561039b57600080fd5b507f0000000000000000000000000000000000000000000000000000000000000000610212565b3480156103ce57600080fd5b506102fe6108c5565b3480156103e357600080fd5b506101d76103f2366004611072565b610907565b34801561040357600080fd5b506102d6610aea565b34801561041857600080fd5b506101d761042736600461108b565b610b9e565b60018054610439906110da565b80601f0160208091040260200160405190810160405280929190818152602001828054610465906110da565b80156104b25780601f10610487576101008083540402835291602001916104b2565b820191906000526020600020905b81548152906001019060200180831161049557829003601f168201915b505050505081565b6104c2610e40565b7f00000000000000000000000000000000000000000000000000000000000000006105005760405163f170c67f60e01b815260040160405180910390fd5b3460000361052157604051631f2a200560e01b815260040160405180910390fd5b4761052a610e6a565b604080513481526020810184905260018183015290516001600160a01b0392909216916000805160206111c58339815191529181900360600190a260025460ff1615801561059857507f00000000000000000000000000000000000000000000000000000000000000008110155b156105c55760408051428152602081018390526000805160206111a5833981519152910160405180910390a15b506105d06001600055565b565b6105da610e40565b7f00000000000000000000000000000000000000000000000000000000000000006001600160a01b031661060c610e6a565b6001600160a01b031614610633576040516393687c0b60e01b815260040160405180910390fd5b60025460ff161561065757604051636507689f60e01b815260040160405180910390fd5b6000610661610aea565b90507f00000000000000000000000000000000000000000000000000000000000000008110156106a4576040516378c754c960e01b815260040160405180910390fd5b6002805460ff191660011790557f0000000000000000000000000000000000000000000000000000000000000000156108025760007f00000000000000000000000000000000000000000000000000000000000000006001600160a01b03168260405160006040518083038185875af1925050503d8060008114610744576040519150601f19603f3d011682016040523d82523d6000602084013e610749565b606091505b50509050806107985760405162461bcd60e51b81526020600482015260166024820152751b985d1a5d99481d1c985b9cd9995c8819985a5b195960521b60448201526064015b60405180910390fd5b60408051838152600160208201526001600160a01b037f000000000000000000000000000000000000000000000000000000000000000016917f2fd83d5e9f5d240bed47a97a24cf354e4047e25edc2da27b01fd95e5e8a0c9a5910160405180910390a2506105c5565b6108566001600160a01b037f0000000000000000000000000000000000000000000000000000000000000000167f000000000000000000000000000000000000000000000000000000000000000083610e74565b60408051828152600060208201526001600160a01b037f000000000000000000000000000000000000000000000000000000000000000016917f2fd83d5e9f5d240bed47a97a24cf354e4047e25edc2da27b01fd95e5e8a0c9a5910160405180910390a2506105d06001600055565b60025460009060ff1615801561090257507f00000000000000000000000000000000000000000000000000000000000000006108ff610aea565b10155b905090565b61090f610e40565b7f00000000000000000000000000000000000000000000000000000000000000001561094e5760405163f170c67f60e01b815260040160405180910390fd5b8060000361096f57604051631f2a200560e01b815260040160405180910390fd5b6109ac61097a610e6a565b6001600160a01b037f000000000000000000000000000000000000000000000000000000000000000016903084610ed8565b6040516370a0823160e01b81523060048201526000907f00000000000000000000000000000000000000000000000000000000000000006001600160a01b0316906370a0823190602401602060405180830381865afa158015610a13573d6000803e3d6000fd5b505050506040513d601f19601f82011682018060405250810190610a379190611114565b9050610a41610e6a565b604080518481526020810184905260008183015290516001600160a01b0392909216916000805160206111c58339815191529181900360600190a260025460ff16158015610aaf57507f00000000000000000000000000000000000000000000000000000000000000008110155b15610adc5760408051428152602081018390526000805160206111a5833981519152910160405180910390a15b50610ae76001600055565b50565b60007f0000000000000000000000000000000000000000000000000000000000000000610b99576040516370a0823160e01b81523060048201527f00000000000000000000000000000000000000000000000000000000000000006001600160a01b0316906370a0823190602401602060405180830381865afa158015610b75573d6000803e3d6000fd5b505050506040513d601f19601f820116820180604052508101906109029190611114565b504790565b610ba6610e40565b7f000000000000000000000000000000000000000000000000000000000000000015610be55760405163f170c67f60e01b815260040160405180910390fd5b84600003610c0657604051631f2a200560e01b815260040160405180910390fd5b7f00000000000000000000000000000000000000000000000000000000000000006001600160a01b031663d505accf610c3d610e6a565b6040516001600160e01b031960e084901b1681526001600160a01b039091166004820152306024820152604481018890526064810187905260ff8616608482015260a4810185905260c4810184905260e401600060405180830381600087803b158015610ca957600080fd5b505af1158015610cbd573d6000803e3d6000fd5b50505050610cfe610ccc610e6a565b6001600160a01b037f000000000000000000000000000000000000000000000000000000000000000016903088610ed8565b6040516370a0823160e01b81523060048201526000907f00000000000000000000000000000000000000000000000000000000000000006001600160a01b0316906370a0823190602401602060405180830381865afa158015610d65573d6000803e3d6000fd5b505050506040513d601f19601f82011682018060405250810190610d899190611114565b9050610d93610e6a565b604080518881526020810184905260008183015290516001600160a01b0392909216916000805160206111c58339815191529181900360600190a260025460ff16158015610e0157507f00000000000000000000000000000000000000000000000000000000000000008110155b15610e2e5760408051428152602081018390526000805160206111a5833981519152910160405180910390a15b50610e396001600055565b5050505050565b600260005403610e6357604051633ee5aeb560e01b815260040160405180910390fd5b6002600055565b6000610902610f17565b6040516001600160a01b03838116602483015260448201839052610ed391859182169063a9059cbb906064015b604051602081830303815290604052915060e01b6020820180516001600160e01b038381831617835250505050610f83565b505050565b6040516001600160a01b038481166024830152838116604483015260648201839052610f119186918216906323b872dd90608401610ea1565b50505050565b6000366014808210801590610f5457507f00000000000000000000000000000000000000000000000000000000000000006001600160a01b031633145b15610f7b57610f683682840381600061112d565b610f7191611157565b60601c9250505090565b339250505090565b600080602060008451602086016000885af180610fa6576040513d6000823e3d81fd5b50506000513d91508115610fbe578060011415610fcb565b6001600160a01b0384163b155b15610f1157604051635274afe760e01b81526001600160a01b038516600482015260240161078f565b602081526000825180602084015260005b818110156110225760208186018101516040868401015201611005565b506000604082850101526040601f19601f83011684010191505092915050565b60006020828403121561105457600080fd5b81356001600160a01b038116811461106b57600080fd5b9392505050565b60006020828403121561108457600080fd5b5035919050565b600080600080600060a086880312156110a357600080fd5b8535945060208601359350604086013560ff811681146110c257600080fd5b94979396509394606081013594506080013592915050565b600181811c908216806110ee57607f821691505b60208210810361110e57634e487b7160e01b600052602260045260246000fd5b50919050565b60006020828403121561112657600080fd5b5051919050565b6000808585111561113d57600080fd5b8386111561114a57600080fd5b5050820193919092039150565b80356bffffffffffffffffffffffff19811690601484101561119d576bffffffffffffffffffffffff196bffffffffffffffffffffffff198560140360031b1b82161691505b509291505056fe85b3ed4e45559c5f41fb220aa4ac86a440dfc741f219089de694242940aaa09c65e6f89b6907d6277741ee4ccbc4ae260163a17f16bbb55b5344dff064867c40a2646970667358221220eb473c74c259fcf8ef82e11dd0b9e6a9787d5b809126ea067a4f3d716f9a8b7564736f6c634300081c0033a264697066735822122041cb266f63974e70486bc27863eecef7146d02b558a75c3107a7c0bd08479b2d64736f6c634300081c0033","linkReferences":{}},"methodIdentifiers":{"allVaults(uint256)":"9094a91e","allVaultsLength()":"4cd18577","createVaultERC20(address,uint256,string)":"9a543d82","createVaultNative(uint256,string)":"c0ffcf8d","forwarder()":"f645d4f9","getCreatorVaults(address)":"674e9ca2","isTrustedForwarder(address)":"572b6c05","trustedForwarder()":"7da0a877"},"id":1}