{"abi":[{"type":"function","name":"allVaults","inputs":[{"name":"i","type":"uint256","internalType":"uint256"}],"outputs":[{"name":"","type":"address","internalType":"address"}],"stateMutability":"view"},{"type":"function","name":"allVaultsLength","inputs":[],"outputs":[{"name":"","type":"uint256","internalType":"uint256"}],"stateMutability":"view"},{"type":"function","name":"createVaultERC20","inputs":[{"name":"asset","type":"address","internalType":"contract IERC20"},{"name":"goal","type":"uint256","internalType":"uint256"},{"name":"name","type":"string","internalType":"string"}],"outputs":[{"name":"vault","type":"address","internalType":"address"}],"stateMutability":"nonpayable"},{"type":"function","name":"createVaultNative","inputs":[{"name":"goal","type":"uint256","internalType":"uint256"},{"name":"name","type":"string","internalType":"string"}],"outputs":[{"name":"vault","type":"address","internalType":"address"}],"stateMutability":"nonpayable"},{"type":"function","name":"getCreatorVaults","inputs":[{"name":"creator","type":"address","internalType":"address"}],"outputs":[{"name":"","type":"address[]","internalType":"address[]"}],"stateMutability":"view"},{"type":"event","name":"VaultCreated","inputs":[{"name":"creator","type":"address","indexed":true,"internalType":"address"},{"name":"vault","type":"address","indexed":false,"internalType":"address"},{"name":"asset","type":"address","indexed":true,"internalType":"address"},{"name":"isNative","type":"bool","indexed":false,"internalType":"bool"},{"name":"goal","type":"uint256","indexed":false,"internalType":"uint256"},{"name":"name","type":"string","indexed":false,"internalType":"string"}],"anonymous":false}],"bytecode":{"object":"0x6080604052348015600f57600080fd5b5061176e8061001f6000396000f3fe608060405234801561001057600080fd5b50600436106100575760003560e01c80634cd185771461005c578063674e9ca2146100725780639094a91e146100925780639a543d82146100bd578063c0ffcf8d146100d0575b600080fd5b6001546040519081526020015b60405180910390f35b6100856100803660046103b0565b6100e3565b60405161006991906103d4565b6100a56100a0366004610420565b610157565b6040516001600160a01b039091168152602001610069565b6100a56100cb366004610482565b610187565b6100a56100de3660046104de565b61028b565b6001600160a01b0381166000908152602081815260409182902080548351818402810184019094528084526060939283018282801561014b57602002820191906000526020600020905b81546001600160a01b0316815260019091019060200180831161012d575b50505050509050919050565b60006001828154811061016c5761016c61052a565b6000918252602090912001546001600160a01b031692915050565b60003385600086868660405161019c9061038b565b6101ab96959493929190610569565b604051809103906000f0801580156101c7573d6000803e3d6000fd5b503360008181526020818152604080832080546001818101835591855292842090920180546001600160a01b038088166001600160a01b03199283168117909355845480860186559486527fb10e2d527612073b26eecdfd717e6a320cf44b4afac2b0732d9fcbe2b7fa0cf690940180549091169091179055519394508816927fdc341d3bc7b547adc28dc5fd69fd2ac058a6a5938cf499dcd2c7db3f80f374c59161027b918691908a908a908a906105b1565b60405180910390a3949350505050565b600033600060018686866040516102a19061038b565b6102b096959493929190610569565b604051809103906000f0801580156102cc573d6000803e3d6000fd5b503360008181526020818152604080832080546001818101835591855292842090920180546001600160a01b0387166001600160a01b03199182168117909255835480850185558486527fb10e2d527612073b26eecdfd717e6a320cf44b4afac2b0732d9fcbe2b7fa0cf601805490911690911790555193945090927fdc341d3bc7b547adc28dc5fd69fd2ac058a6a5938cf499dcd2c7db3f80f374c59161037c918691908a908a908a906105b1565b60405180910390a39392505050565b61114c806105ed83390190565b6001600160a01b03811681146103ad57600080fd5b50565b6000602082840312156103c257600080fd5b81356103cd81610398565b9392505050565b602080825282518282018190526000918401906040840190835b818110156104155783516001600160a01b03168352602093840193909201916001016103ee565b509095945050505050565b60006020828403121561043257600080fd5b5035919050565b60008083601f84011261044b57600080fd5b50813567ffffffffffffffff81111561046357600080fd5b60208301915083602082850101111561047b57600080fd5b9250929050565b6000806000806060858703121561049857600080fd5b84356104a381610398565b935060208501359250604085013567ffffffffffffffff8111156104c657600080fd5b6104d287828801610439565b95989497509550505050565b6000806000604084860312156104f357600080fd5b83359250602084013567ffffffffffffffff81111561051157600080fd5b61051d86828701610439565b9497909650939450505050565b634e487b7160e01b600052603260045260246000fd5b81835281816020850137506000828201602090810191909152601f909101601f19169091010190565b6001600160a01b0387811682528616602082015284151560408201526060810184905260a0608082018190526000906105a59083018486610540565b98975050505050505050565b60018060a01b038616815284151560208201528360408201526080606082015260006105e1608083018486610540565b97965050505050505056fe61010060405260405161114c38038061114c83398101604081905261002391610117565b60016000556001600160a01b038516158061003c575081155b1561005a57604051633494a40d60e21b815260040160405180910390fd5b821561008d576001600160a01b0384161561008857604051633494a40d60e21b815260040160405180910390fd5b6100b4565b6001600160a01b0384166100b457604051633494a40d60e21b815260040160405180910390fd5b6001600160a01b03808616608052841660a05282151560c05260e082905260016100de82826102b6565b505050505050610374565b6001600160a01b03811681146100fe57600080fd5b50565b634e487b7160e01b600052604160045260246000fd5b600080600080600060a0868803121561012f57600080fd5b855161013a816100e9565b602087015190955061014b816100e9565b6040870151909450801515811461016157600080fd5b6060870151608088015191945092506001600160401b0381111561018457600080fd5b8601601f8101881361019557600080fd5b80516001600160401b038111156101ae576101ae610101565b604051601f8201601f19908116603f011681016001600160401b03811182821017156101dc576101dc610101565b6040528181528282016020018a10156101f457600080fd5b60005b82811015610213576020818501810151838301820152016101f7565b506000602083830101528093505050509295509295909350565b600181811c9082168061024157607f821691505b60208210810361026157634e487b7160e01b600052602260045260246000fd5b50919050565b601f8211156102b157806000526020600020601f840160051c8101602085101561028e5750805b601f840160051c820191505b818110156102ae576000815560010161029a565b50505b505050565b81516001600160401b038111156102cf576102cf610101565b6102e3816102dd845461022d565b84610267565b6020601f82116001811461031757600083156102ff5750848201515b600019600385901b1c1916600184901b1784556102ae565b600084815260208120601f198516915b828110156103475787850151825560209485019460019092019101610327565b50848210156103655786840151600019600387901b60f8161c191681555b50505050600190811b01905550565b60805160a05160c05160e051610d1b6104316000396000818161015801528181610297015281816104b8015281816105aa0152818161081d01526109c901526000818160a70152818161030301528181610407015281816105f8015281816108560152610a3d01526000818161024e01528181610754015281816108c1015281816109010152610a750152600081816101d30152818161053a01528181610620015281816106f50152818161077601526107b30152610d1b6000f3fe6080604052600436106100a05760003560e01c80634019388311610064578063401938831461028557806344aa5700146102c757806373cfc6b2146102f1578063b51459fe14610325578063c1cbbca71461033a578063c66f24551461035a57600080fd5b806302d05d3f146101c157806306fdde03146102125780631f6899351461023457806338d52e0f1461023c5780633ccfd60b1461027057600080fd5b366101bc577f00000000000000000000000000000000000000000000000000000000000000006100e35760405163f170c67f60e01b815260040160405180910390fd5b3460000361010457604051631f2a200560e01b815260040160405180910390fd5b604080513481524760208201819052600182840152915133917f65e6f89b6907d6277741ee4ccbc4ae260163a17f16bbb55b5344dff064867c40919081900360600190a260025460ff1615801561017b57507f00000000000000000000000000000000000000000000000000000000000000008110155b156101ba5760408051428152602081018390527f85b3ed4e45559c5f41fb220aa4ac86a440dfc741f219089de694242940aaa09c910160405180910390a15b005b600080fd5b3480156101cd57600080fd5b506101f57f000000000000000000000000000000000000000000000000000000000000000081565b6040516001600160a01b0390911681526020015b60405180910390f35b34801561021e57600080fd5b5061022761036f565b6040516102099190610c2b565b6101ba6103fd565b34801561024857600080fd5b506101f57f000000000000000000000000000000000000000000000000000000000000000081565b34801561027c57600080fd5b506101ba610527565b34801561029157600080fd5b506102b97f000000000000000000000000000000000000000000000000000000000000000081565b604051908152602001610209565b3480156102d357600080fd5b506002546102e19060ff1681565b6040519015158152602001610209565b3480156102fd57600080fd5b506102e17f000000000000000000000000000000000000000000000000000000000000000081565b34801561033157600080fd5b506102e161080a565b34801561034657600080fd5b506101ba610355366004610c79565b61084c565b34801561036657600080fd5b506102b9610a39565b6001805461037c90610c92565b80601f01602080910402602001604051908101604052809291908181526020018280546103a890610c92565b80156103f55780601f106103ca576101008083540402835291602001916103f5565b820191906000526020600020905b8154815290600101906020018083116103d857829003601f168201915b505050505081565b610405610aed565b7f00000000000000000000000000000000000000000000000000000000000000006104435760405163f170c67f60e01b815260040160405180910390fd5b3460000361046457604051631f2a200560e01b815260040160405180910390fd5b604080513481524760208201819052600182840152915133917f65e6f89b6907d6277741ee4ccbc4ae260163a17f16bbb55b5344dff064867c40919081900360600190a260025460ff161580156104db57507f00000000000000000000000000000000000000000000000000000000000000008110155b1561051a5760408051428152602081018390527f85b3ed4e45559c5f41fb220aa4ac86a440dfc741f219089de694242940aaa09c910160405180910390a15b506105256001600055565b565b61052f610aed565b336001600160a01b037f00000000000000000000000000000000000000000000000000000000000000001614610578576040516393687c0b60e01b815260040160405180910390fd5b60025460ff161561059c57604051636507689f60e01b815260040160405180910390fd5b60006105a6610a39565b90507f00000000000000000000000000000000000000000000000000000000000000008110156105e9576040516378c754c960e01b815260040160405180910390fd5b6002805460ff191660011790557f0000000000000000000000000000000000000000000000000000000000000000156107475760007f00000000000000000000000000000000000000000000000000000000000000006001600160a01b03168260405160006040518083038185875af1925050503d8060008114610689576040519150601f19603f3d011682016040523d82523d6000602084013e61068e565b606091505b50509050806106dd5760405162461bcd60e51b81526020600482015260166024820152751b985d1a5d99481d1c985b9cd9995c8819985a5b195960521b60448201526064015b60405180910390fd5b60408051838152600160208201526001600160a01b037f000000000000000000000000000000000000000000000000000000000000000016917f2fd83d5e9f5d240bed47a97a24cf354e4047e25edc2da27b01fd95e5e8a0c9a5910160405180910390a25061051a565b61079b6001600160a01b037f0000000000000000000000000000000000000000000000000000000000000000167f000000000000000000000000000000000000000000000000000000000000000083610b17565b60408051828152600060208201526001600160a01b037f000000000000000000000000000000000000000000000000000000000000000016917f2fd83d5e9f5d240bed47a97a24cf354e4047e25edc2da27b01fd95e5e8a0c9a5910160405180910390a2506105256001600055565b60025460009060ff1615801561084757507f0000000000000000000000000000000000000000000000000000000000000000610844610a39565b10155b905090565b610854610aed565b7f0000000000000000000000000000000000000000000000000000000000000000156108935760405163f170c67f60e01b815260040160405180910390fd5b806000036108b457604051631f2a200560e01b815260040160405180910390fd5b6108e96001600160a01b037f000000000000000000000000000000000000000000000000000000000000000016333084610b7b565b6040516370a0823160e01b81523060048201526000907f00000000000000000000000000000000000000000000000000000000000000006001600160a01b0316906370a0823190602401602060405180830381865afa158015610950573d6000803e3d6000fd5b505050506040513d601f19601f820116820180604052508101906109749190610ccc565b6040805184815260208101839052600081830152905191925033917f65e6f89b6907d6277741ee4ccbc4ae260163a17f16bbb55b5344dff064867c409181900360600190a260025460ff161580156109ec57507f00000000000000000000000000000000000000000000000000000000000000008110155b15610a2b5760408051428152602081018390527f85b3ed4e45559c5f41fb220aa4ac86a440dfc741f219089de694242940aaa09c910160405180910390a15b50610a366001600055565b50565b60007f0000000000000000000000000000000000000000000000000000000000000000610ae8576040516370a0823160e01b81523060048201527f00000000000000000000000000000000000000000000000000000000000000006001600160a01b0316906370a0823190602401602060405180830381865afa158015610ac4573d6000803e3d6000fd5b505050506040513d601f19601f820116820180604052508101906108479190610ccc565b504790565b600260005403610b1057604051633ee5aeb560e01b815260040160405180910390fd5b6002600055565b6040516001600160a01b03838116602483015260448201839052610b7691859182169063a9059cbb906064015b604051602081830303815290604052915060e01b6020820180516001600160e01b038381831617835250505050610bba565b505050565b6040516001600160a01b038481166024830152838116604483015260648201839052610bb49186918216906323b872dd90608401610b44565b50505050565b600080602060008451602086016000885af180610bdd576040513d6000823e3d81fd5b50506000513d91508115610bf5578060011415610c02565b6001600160a01b0384163b155b15610bb457604051635274afe760e01b81526001600160a01b03851660048201526024016106d4565b602081526000825180602084015260005b81811015610c595760208186018101516040868401015201610c3c565b506000604082850101526040601f19601f83011684010191505092915050565b600060208284031215610c8b57600080fd5b5035919050565b600181811c90821680610ca657607f821691505b602082108103610cc657634e487b7160e01b600052602260045260246000fd5b50919050565b600060208284031215610cde57600080fd5b505191905056fea2646970667358221220f02d1bfa89d8c5271b7cbf800f845dcda7e476de177868c2b0747d15f156c58164736f6c634300081c0033a26469706673582212204c8203de84f5bf54eede316e71ca7540c5ef595bda9339c18832892f8d13364664736f6c634300081c0033","linkReferences":{}},"methodIdentifiers":{"allVaults(uint256)":"9094a91e","allVaultsLength()":"4cd18577","createVaultERC20(address,uint256,string)":"9a543d82","createVaultNative(uint256,string)":"c0ffcf8d","getCreatorVaults(address)":"674e9ca2"},"id":1}